{
  "_format": "hh-sol-artifact-1",
  "contractName": "Certificate",
  "sourceName": "contracts/Certificate.sol",
  "abi": [
    {
      "inputs": [],
      "stateMutability": "nonpayable",
      "type": "constructor"
    },
    {
      "anonymous": false,
      "inputs": [
        {
          "indexed": true,
          "internalType": "address",
          "name": "owner",
          "type": "address"
        },
        {
          "indexed": true,
          "internalType": "address",
          "name": "approved",
          "type": "address"
        },
        {
          "indexed": true,
          "internalType": "uint256",
          "name": "tokenId",
          "type": "uint256"
        }
      ],
      "name": "Approval",
      "type": "event"
    },
    {
      "anonymous": false,
      "inputs": [
        {
          "indexed": true,
          "internalType": "address",
          "name": "owner",
          "type": "address"
        },
        {
          "indexed": true,
          "internalType": "address",
          "name": "operator",
          "type": "address"
        },
        {
          "indexed": false,
          "internalType": "bool",
          "name": "approved",
          "type": "bool"
        }
      ],
      "name": "ApprovalForAll",
      "type": "event"
    },
    {
      "anonymous": false,
      "inputs": [
        {
          "indexed": true,
          "internalType": "address",
          "name": "from",
          "type": "address"
        },
        {
          "indexed": true,
          "internalType": "address",
          "name": "to",
          "type": "address"
        },
        {
          "indexed": true,
          "internalType": "uint256",
          "name": "tokenId",
          "type": "uint256"
        }
      ],
      "name": "Transfer",
      "type": "event"
    },
    {
      "inputs": [
        {
          "internalType": "address",
          "name": "to",
          "type": "address"
        },
        {
          "internalType": "uint256",
          "name": "tokenId",
          "type": "uint256"
        }
      ],
      "name": "approve",
      "outputs": [],
      "stateMutability": "nonpayable",
      "type": "function"
    },
    {
      "inputs": [
        {
          "internalType": "address",
          "name": "owner",
          "type": "address"
        }
      ],
      "name": "balanceOf",
      "outputs": [
        {
          "internalType": "uint256",
          "name": "",
          "type": "uint256"
        }
      ],
      "stateMutability": "view",
      "type": "function"
    },
    {
      "inputs": [
        {
          "internalType": "uint256",
          "name": "_tokenId",
          "type": "uint256"
        }
      ],
      "name": "certificateDetails",
      "outputs": [
        {
          "components": [
            {
              "internalType": "string",
              "name": "name",
              "type": "string"
            },
            {
              "internalType": "string",
              "name": "fileHash",
              "type": "string"
            },
            {
              "internalType": "uint256",
              "name": "tokenId",
              "type": "uint256"
            }
          ],
          "internalType": "struct Certificate.CertificateMeta",
          "name": "",
          "type": "tuple"
        }
      ],
      "stateMutability": "view",
      "type": "function"
    },
    {
      "inputs": [
        {
          "internalType": "uint256",
          "name": "tokenId",
          "type": "uint256"
        }
      ],
      "name": "getApproved",
      "outputs": [
        {
          "internalType": "address",
          "name": "",
          "type": "address"
        }
      ],
      "stateMutability": "view",
      "type": "function"
    },
    {
      "inputs": [],
      "name": "getIssuer",
      "outputs": [
        {
          "internalType": "address",
          "name": "",
          "type": "address"
        }
      ],
      "stateMutability": "view",
      "type": "function"
    },
    {
      "inputs": [
        {
          "internalType": "address",
          "name": "owner",
          "type": "address"
        },
        {
          "internalType": "address",
          "name": "operator",
          "type": "address"
        }
      ],
      "name": "isApprovedForAll",
      "outputs": [
        {
          "internalType": "bool",
          "name": "",
          "type": "bool"
        }
      ],
      "stateMutability": "view",
      "type": "function"
    },
    {
      "inputs": [],
      "name": "issuedCertificates",
      "outputs": [
        {
          "components": [
            {
              "internalType": "string",
              "name": "name",
              "type": "string"
            },
            {
              "internalType": "string",
              "name": "fileHash",
              "type": "string"
            },
            {
              "internalType": "uint256",
              "name": "tokenId",
              "type": "uint256"
            }
          ],
          "internalType": "struct Certificate.CertificateMeta[]",
          "name": "",
          "type": "tuple[]"
        }
      ],
      "stateMutability": "view",
      "type": "function"
    },
    {
      "inputs": [
        {
          "internalType": "address",
          "name": "_recipient",
          "type": "address"
        },
        {
          "internalType": "string",
          "name": "_name",
          "type": "string"
        },
        {
          "internalType": "string",
          "name": "_fileHash",
          "type": "string"
        }
      ],
      "name": "mintAndTransfer",
      "outputs": [],
      "stateMutability": "nonpayable",
      "type": "function"
    },
    {
      "inputs": [],
      "name": "myCertificates",
      "outputs": [
        {
          "components": [
            {
              "internalType": "string",
              "name": "name",
              "type": "string"
            },
            {
              "internalType": "string",
              "name": "fileHash",
              "type": "string"
            },
            {
              "internalType": "uint256",
              "name": "tokenId",
              "type": "uint256"
            }
          ],
          "internalType": "struct Certificate.CertificateMeta[]",
          "name": "",
          "type": "tuple[]"
        }
      ],
      "stateMutability": "view",
      "type": "function"
    },
    {
      "inputs": [],
      "name": "name",
      "outputs": [
        {
          "internalType": "string",
          "name": "",
          "type": "string"
        }
      ],
      "stateMutability": "view",
      "type": "function"
    },
    {
      "inputs": [
        {
          "internalType": "uint256",
          "name": "tokenId",
          "type": "uint256"
        }
      ],
      "name": "ownerOf",
      "outputs": [
        {
          "internalType": "address",
          "name": "",
          "type": "address"
        }
      ],
      "stateMutability": "view",
      "type": "function"
    },
    {
      "inputs": [
        {
          "internalType": "address",
          "name": "from",
          "type": "address"
        },
        {
          "internalType": "address",
          "name": "to",
          "type": "address"
        },
        {
          "internalType": "uint256",
          "name": "tokenId",
          "type": "uint256"
        }
      ],
      "name": "safeTransferFrom",
      "outputs": [],
      "stateMutability": "nonpayable",
      "type": "function"
    },
    {
      "inputs": [
        {
          "internalType": "address",
          "name": "from",
          "type": "address"
        },
        {
          "internalType": "address",
          "name": "to",
          "type": "address"
        },
        {
          "internalType": "uint256",
          "name": "tokenId",
          "type": "uint256"
        },
        {
          "internalType": "bytes",
          "name": "_data",
          "type": "bytes"
        }
      ],
      "name": "safeTransferFrom",
      "outputs": [],
      "stateMutability": "nonpayable",
      "type": "function"
    },
    {
      "inputs": [
        {
          "internalType": "address",
          "name": "operator",
          "type": "address"
        },
        {
          "internalType": "bool",
          "name": "approved",
          "type": "bool"
        }
      ],
      "name": "setApprovalForAll",
      "outputs": [],
      "stateMutability": "nonpayable",
      "type": "function"
    },
    {
      "inputs": [
        {
          "internalType": "bytes4",
          "name": "interfaceId",
          "type": "bytes4"
        }
      ],
      "name": "supportsInterface",
      "outputs": [
        {
          "internalType": "bool",
          "name": "",
          "type": "bool"
        }
      ],
      "stateMutability": "view",
      "type": "function"
    },
    {
      "inputs": [],
      "name": "symbol",
      "outputs": [
        {
          "internalType": "string",
          "name": "",
          "type": "string"
        }
      ],
      "stateMutability": "view",
      "type": "function"
    },
    {
      "inputs": [
        {
          "internalType": "uint256",
          "name": "tokenId",
          "type": "uint256"
        }
      ],
      "name": "tokenURI",
      "outputs": [
        {
          "internalType": "string",
          "name": "",
          "type": "string"
        }
      ],
      "stateMutability": "view",
      "type": "function"
    },
    {
      "inputs": [
        {
          "internalType": "address",
          "name": "from",
          "type": "address"
        },
        {
          "internalType": "address",
          "name": "to",
          "type": "address"
        },
        {
          "internalType": "uint256",
          "name": "tokenId",
          "type": "uint256"
        }
      ],
      "name": "transferFrom",
      "outputs": [],
      "stateMutability": "nonpayable",
      "type": "function"
    }
  ],
  "bytecode": "0x60806040523480156200001157600080fd5b506040518060400160405280601781526020017f426c6f636b546865446f632043657274696669636174650000000000000000008152506040518060400160405280600481526020017f4254444300000000000000000000000000000000000000000000000000000000815250816000908051906020019062000096929190620000f9565b508060019080519060200190620000af929190620000f9565b50505033600660006101000a81548173ffffffffffffffffffffffffffffffffffffffff021916908373ffffffffffffffffffffffffffffffffffffffff1602179055506200020e565b8280546200010790620001a9565b90600052602060002090601f0160209004810192826200012b576000855562000177565b82601f106200014657805160ff191683800117855562000177565b8280016001018555821562000177579182015b828111156200017657825182559160200191906001019062000159565b5b5090506200018691906200018a565b5090565b5b80821115620001a55760008160009055506001016200018b565b5090565b60006002820490506001821680620001c257607f821691505b60208210811415620001d957620001d8620001df565b5b50919050565b7f4e487b7100000000000000000000000000000000000000000000000000000000600052602260045260246000fd5b613629806200021e6000396000f3fe608060405234801561001057600080fd5b50600436106101165760003560e01c806352556421116100a2578063a22cb46511610071578063a22cb465146102f3578063ab3094f11461030f578063b88d4fde1461032d578063c87b56dd14610349578063e985e9c51461037957610116565b806352556421146102575780636352211e1461027557806370a08231146102a557806395d89b41146102d557610116565b80631bc50fee116100e95780631bc50fee146101b557806323b872dd146101d357806342842e0e146101ef57806344128c871461020b578063477bf1771461023b57610116565b806301ffc9a71461011b57806306fdde031461014b578063081812fc14610169578063095ea7b314610199575b600080fd5b61013560048036038101906101309190612550565b6103a9565b6040516101429190612ef5565b60405180910390f35b61015361048b565b6040516101609190612f10565b60405180910390f35b610183600480360381019061017e91906125a2565b61051d565b6040516101909190612e6c565b60405180910390f35b6101b360048036038101906101ae9190612514565b6105a2565b005b6101bd6106ba565b6040516101ca9190612ed3565b60405180910390f35b6101ed60048036038101906101e8919061238f565b610884565b005b6102096004803603810190610204919061238f565b6108e4565b005b610225600480360381019061022091906125a2565b610904565b6040516102329190613152565b60405180910390f35b61025560048036038101906102509190612495565b610a94565b005b61025f610c97565b60405161026c9190612e6c565b60405180910390f35b61028f600480360381019061028a91906125a2565b610cc1565b60405161029c9190612e6c565b60405180910390f35b6102bf60048036038101906102ba919061232a565b610d73565b6040516102cc9190613174565b60405180910390f35b6102dd610e2b565b6040516102ea9190612f10565b60405180910390f35b61030d60048036038101906103089190612459565b610ebd565b005b61031761103e565b6040516103249190612ed3565b60405180910390f35b610347600480360381019061034291906123de565b611213565b005b610363600480360381019061035e91906125a2565b611275565b6040516103709190612f10565b60405180910390f35b610393600480360381019061038e9190612353565b61131c565b6040516103a09190612ef5565b60405180910390f35b60007f80ac58cd000000000000000000000000000000000000000000000000000000007bffffffffffffffffffffffffffffffffffffffffffffffffffffffff1916827bffffffffffffffffffffffffffffffffffffffffffffffffffffffff1916148061047457507f5b5e139f000000000000000000000000000000000000000000000000000000007bffffffffffffffffffffffffffffffffffffffffffffffffffffffff1916827bffffffffffffffffffffffffffffffffffffffffffffffffffffffff1916145b806104845750610483826113b0565b5b9050919050565b60606000805461049a9061341e565b80601f01602080910402602001604051908101604052809291908181526020018280546104c69061341e565b80156105135780601f106104e857610100808354040283529160200191610513565b820191906000526020600020905b8154815290600101906020018083116104f657829003601f168201915b5050505050905090565b60006105288261141a565b610567576040517f08c379a000000000000000000000000000000000000000000000000000000000815260040161055e90613092565b60405180910390fd5b6004600083815260200190815260200160002060009054906101000a900473ffffffffffffffffffffffffffffffffffffffff169050919050565b60006105ad82610cc1565b90508073ffffffffffffffffffffffffffffffffffffffff168373ffffffffffffffffffffffffffffffffffffffff16141561061e576040517f08c379a000000000000000000000000000000000000000000000000000000000815260040161061590613112565b60405180910390fd5b8073ffffffffffffffffffffffffffffffffffffffff1661063d611486565b73ffffffffffffffffffffffffffffffffffffffff16148061066c575061066b81610666611486565b61131c565b5b6106ab576040517f08c379a00000000000000000000000000000000000000000000000000000000081526004016106a290613012565b60405180910390fd5b6106b5838361148e565b505050565b6060600860003373ffffffffffffffffffffffffffffffffffffffff1673ffffffffffffffffffffffffffffffffffffffff168152602001908152602001600020805480602002602001604051908101604052809291908181526020016000905b8282101561087b578382906000526020600020906003020160405180606001604052908160008201805461074e9061341e565b80601f016020809104026020016040519081016040528092919081815260200182805461077a9061341e565b80156107c75780601f1061079c576101008083540402835291602001916107c7565b820191906000526020600020905b8154815290600101906020018083116107aa57829003601f168201915b505050505081526020016001820180546107e09061341e565b80601f016020809104026020016040519081016040528092919081815260200182805461080c9061341e565b80156108595780601f1061082e57610100808354040283529160200191610859565b820191906000526020600020905b81548152906001019060200180831161083c57829003601f168201915b505050505081526020016002820154815250508152602001906001019061071b565b50505050905090565b61089561088f611486565b82611547565b6108d4576040517f08c379a00000000000000000000000000000000000000000000000000000000081526004016108cb90613132565b60405180910390fd5b6108df838383611625565b505050565b6108ff83838360405180602001604052806000815250611213565b505050565b61090c611f7f565b60078281548110610946577f4e487b7100000000000000000000000000000000000000000000000000000000600052603260045260246000fd5b906000526020600020906003020160405180606001604052908160008201805461096f9061341e565b80601f016020809104026020016040519081016040528092919081815260200182805461099b9061341e565b80156109e85780601f106109bd576101008083540402835291602001916109e8565b820191906000526020600020905b8154815290600101906020018083116109cb57829003601f168201915b50505050508152602001600182018054610a019061341e565b80601f0160208091040260200160405190810160405280929190818152602001828054610a2d9061341e565b8015610a7a5780601f10610a4f57610100808354040283529160200191610a7a565b820191906000526020600020905b815481529060010190602001808311610a5d57829003601f168201915b505050505081526020016002820154815250509050919050565b610a9d33611881565b610adc576040517f08c379a0000000000000000000000000000000000000000000000000000000008152600401610ad3906130f2565b60405180910390fd5b600060078054905090506000604051806060016040528085815260200184815260200183815250905060078190806001815401808255809150506001900390600052602060002090600302016000909190919091506000820151816000019080519060200190610b4d929190611fa0565b506020820151816001019080519060200190610b6a929190611fa0565b50604082015181600201555050610b8133836118db565b610b8c338684611625565b6000600860008773ffffffffffffffffffffffffffffffffffffffff1673ffffffffffffffffffffffffffffffffffffffff1681526020019081526020016000209050808290806001815401808255809150506001900390600052602060002090600302016000909190919091506000820151816000019080519060200190610c16929190611fa0565b506020820151816001019080519060200190610c33929190611fa0565b5060408201518160020155505080600860008873ffffffffffffffffffffffffffffffffffffffff1673ffffffffffffffffffffffffffffffffffffffff168152602001908152602001600020908054610c8e929190612026565b50505050505050565b6000600660009054906101000a900473ffffffffffffffffffffffffffffffffffffffff16905090565b6000806002600084815260200190815260200160002060009054906101000a900473ffffffffffffffffffffffffffffffffffffffff169050600073ffffffffffffffffffffffffffffffffffffffff168173ffffffffffffffffffffffffffffffffffffffff161415610d6a576040517f08c379a0000000000000000000000000000000000000000000000000000000008152600401610d6190613052565b60405180910390fd5b80915050919050565b60008073ffffffffffffffffffffffffffffffffffffffff168273ffffffffffffffffffffffffffffffffffffffff161415610de4576040517f08c379a0000000000000000000000000000000000000000000000000000000008152600401610ddb90613032565b60405180910390fd5b600360008373ffffffffffffffffffffffffffffffffffffffff1673ffffffffffffffffffffffffffffffffffffffff168152602001908152602001600020549050919050565b606060018054610e3a9061341e565b80601f0160208091040260200160405190810160405280929190818152602001828054610e669061341e565b8015610eb35780601f10610e8857610100808354040283529160200191610eb3565b820191906000526020600020905b815481529060010190602001808311610e9657829003601f168201915b5050505050905090565b610ec5611486565b73ffffffffffffffffffffffffffffffffffffffff168273ffffffffffffffffffffffffffffffffffffffff161415610f33576040517f08c379a0000000000000000000000000000000000000000000000000000000008152600401610f2a90612fd2565b60405180910390fd5b8060056000610f40611486565b73ffffffffffffffffffffffffffffffffffffffff1673ffffffffffffffffffffffffffffffffffffffff16815260200190815260200160002060008473ffffffffffffffffffffffffffffffffffffffff1673ffffffffffffffffffffffffffffffffffffffff16815260200190815260200160002060006101000a81548160ff0219169083151502179055508173ffffffffffffffffffffffffffffffffffffffff16610fed611486565b73ffffffffffffffffffffffffffffffffffffffff167f17307eab39ab6107e8899845ad3d59bd9653f200f220920489ca2b5937696c31836040516110329190612ef5565b60405180910390a35050565b606061104933611881565b611088576040517f08c379a000000000000000000000000000000000000000000000000000000000815260040161107f90612f92565b60405180910390fd5b6007805480602002602001604051908101604052809291908181526020016000905b8282101561120a57838290600052602060002090600302016040518060600160405290816000820180546110dd9061341e565b80601f01602080910402602001604051908101604052809291908181526020018280546111099061341e565b80156111565780601f1061112b57610100808354040283529160200191611156565b820191906000526020600020905b81548152906001019060200180831161113957829003601f168201915b5050505050815260200160018201805461116f9061341e565b80601f016020809104026020016040519081016040528092919081815260200182805461119b9061341e565b80156111e85780601f106111bd576101008083540402835291602001916111e8565b820191906000526020600020905b8154815290600101906020018083116111cb57829003601f168201915b50505050508152602001600282015481525050815260200190600101906110aa565b50505050905090565b61122461121e611486565b83611547565b611263576040517f08c379a000000000000000000000000000000000000000000000000000000000815260040161125a90613132565b60405180910390fd5b61126f84848484611aa9565b50505050565b60606112808261141a565b6112bf576040517f08c379a00000000000000000000000000000000000000000000000000000000081526004016112b6906130d2565b60405180910390fd5b60006112c9611b05565b905060008151116112e95760405180602001604052806000815250611314565b806112f384611b1c565b604051602001611304929190612e48565b6040516020818303038152906040525b915050919050565b6000600560008473ffffffffffffffffffffffffffffffffffffffff1673ffffffffffffffffffffffffffffffffffffffff16815260200190815260200160002060008373ffffffffffffffffffffffffffffffffffffffff1673ffffffffffffffffffffffffffffffffffffffff16815260200190815260200160002060009054906101000a900460ff16905092915050565b60007f01ffc9a7000000000000000000000000000000000000000000000000000000007bffffffffffffffffffffffffffffffffffffffffffffffffffffffff1916827bffffffffffffffffffffffffffffffffffffffffffffffffffffffff1916149050919050565b60008073ffffffffffffffffffffffffffffffffffffffff166002600084815260200190815260200160002060009054906101000a900473ffffffffffffffffffffffffffffffffffffffff1673ffffffffffffffffffffffffffffffffffffffff1614159050919050565b600033905090565b816004600083815260200190815260200160002060006101000a81548173ffffffffffffffffffffffffffffffffffffffff021916908373ffffffffffffffffffffffffffffffffffffffff160217905550808273ffffffffffffffffffffffffffffffffffffffff1661150183610cc1565b73ffffffffffffffffffffffffffffffffffffffff167f8c5be1e5ebec7d5bd14f71427d1e84f3dd0314c0f7b2291e5b200ac8c7c3b92560405160405180910390a45050565b60006115528261141a565b611591576040517f08c379a000000000000000000000000000000000000000000000000000000000815260040161158890612ff2565b60405180910390fd5b600061159c83610cc1565b90508073ffffffffffffffffffffffffffffffffffffffff168473ffffffffffffffffffffffffffffffffffffffff16148061160b57508373ffffffffffffffffffffffffffffffffffffffff166115f38461051d565b73ffffffffffffffffffffffffffffffffffffffff16145b8061161c575061161b818561131c565b5b91505092915050565b8273ffffffffffffffffffffffffffffffffffffffff1661164582610cc1565b73ffffffffffffffffffffffffffffffffffffffff161461169b576040517f08c379a0000000000000000000000000000000000000000000000000000000008152600401611692906130b2565b60405180910390fd5b600073ffffffffffffffffffffffffffffffffffffffff168273ffffffffffffffffffffffffffffffffffffffff16141561170b576040517f08c379a000000000000000000000000000000000000000000000000000000000815260040161170290612fb2565b60405180910390fd5b611716838383611cc9565b61172160008261148e565b6001600360008573ffffffffffffffffffffffffffffffffffffffff1673ffffffffffffffffffffffffffffffffffffffff16815260200190815260200160002060008282546117719190613334565b925050819055506001600360008473ffffffffffffffffffffffffffffffffffffffff1673ffffffffffffffffffffffffffffffffffffffff16815260200190815260200160002060008282546117c891906132ad565b92505081905550816002600083815260200190815260200160002060006101000a81548173ffffffffffffffffffffffffffffffffffffffff021916908373ffffffffffffffffffffffffffffffffffffffff160217905550808273ffffffffffffffffffffffffffffffffffffffff168473ffffffffffffffffffffffffffffffffffffffff167fddf252ad1be2c89b69c2b068fc378daa952ba7f163c4a11628f55a4df523b3ef60405160405180910390a4505050565b6000600660009054906101000a900473ffffffffffffffffffffffffffffffffffffffff1673ffffffffffffffffffffffffffffffffffffffff168273ffffffffffffffffffffffffffffffffffffffff16149050919050565b600073ffffffffffffffffffffffffffffffffffffffff168273ffffffffffffffffffffffffffffffffffffffff16141561194b576040517f08c379a000000000000000000000000000000000000000000000000000000000815260040161194290613072565b60405180910390fd5b6119548161141a565b15611994576040517f08c379a000000000000000000000000000000000000000000000000000000000815260040161198b90612f72565b60405180910390fd5b6119a060008383611cc9565b6001600360008473ffffffffffffffffffffffffffffffffffffffff1673ffffffffffffffffffffffffffffffffffffffff16815260200190815260200160002060008282546119f091906132ad565b92505081905550816002600083815260200190815260200160002060006101000a81548173ffffffffffffffffffffffffffffffffffffffff021916908373ffffffffffffffffffffffffffffffffffffffff160217905550808273ffffffffffffffffffffffffffffffffffffffff16600073ffffffffffffffffffffffffffffffffffffffff167fddf252ad1be2c89b69c2b068fc378daa952ba7f163c4a11628f55a4df523b3ef60405160405180910390a45050565b611ab4848484611625565b611ac084848484611d33565b611aff576040517f08c379a0000000000000000000000000000000000000000000000000000000008152600401611af690612f52565b60405180910390fd5b50505050565b606060405180602001604052806000815250905090565b60606000821415611b64576040518060400160405280600181526020017f30000000000000000000000000000000000000000000000000000000000000008152509050611cc4565b600082905060005b60008214611b96578080611b7f90613450565b915050600a82611b8f9190613303565b9150611b6c565b60008167ffffffffffffffff811115611bd8577f4e487b7100000000000000000000000000000000000000000000000000000000600052604160045260246000fd5b6040519080825280601f01601f191660200182016040528015611c0a5781602001600182028036833780820191505090505b5090505b60008514611cbd57600182611c239190613334565b9150600a85611c329190613499565b6030611c3e91906132ad565b60f81b818381518110611c7a577f4e487b7100000000000000000000000000000000000000000000000000000000600052603260045260246000fd5b60200101907effffffffffffffffffffffffffffffffffffffffffffffffffffffffffffff1916908160001a905350600a85611cb69190613303565b9450611c0e565b8093505050505b919050565b611cd4838383611eca565b611cde8382611ecf565b80611cef5750611cee8382611f1a565b5b611d2e576040517f08c379a0000000000000000000000000000000000000000000000000000000008152600401611d2590612f32565b60405180910390fd5b505050565b6000611d548473ffffffffffffffffffffffffffffffffffffffff16611f6c565b15611ebd578373ffffffffffffffffffffffffffffffffffffffff1663150b7a02611d7d611486565b8786866040518563ffffffff1660e01b8152600401611d9f9493929190612e87565b602060405180830381600087803b158015611db957600080fd5b505af1925050508015611dea57506040513d601f19601f82011682018060405250810190611de79190612579565b60015b611e6d573d8060008114611e1a576040519150601f19603f3d011682016040523d82523d6000602084013e611e1f565b606091505b50600081511415611e65576040517f08c379a0000000000000000000000000000000000000000000000000000000008152600401611e5c90612f52565b60405180910390fd5b805181602001fd5b63150b7a0260e01b7bffffffffffffffffffffffffffffffffffffffffffffffffffffffff1916817bffffffffffffffffffffffffffffffffffffffffffffffffffffffff191614915050611ec2565b600190505b949350505050565b505050565b60008073ffffffffffffffffffffffffffffffffffffffff168373ffffffffffffffffffffffffffffffffffffffff16148015611f125750611f108261141a565b155b905092915050565b6000611f2583611881565b8015611f6457508273ffffffffffffffffffffffffffffffffffffffff16611f4c83610cc1565b73ffffffffffffffffffffffffffffffffffffffff16145b905092915050565b600080823b905060008111915050919050565b60405180606001604052806060815260200160608152602001600081525090565b828054611fac9061341e565b90600052602060002090601f016020900481019282611fce5760008555612015565b82601f10611fe757805160ff1916838001178555612015565b82800160010185558215612015579182015b82811115612014578251825591602001919060010190611ff9565b5b50905061202291906120c8565b5090565b8280548282559060005260206000209060030281019282156120b75760005260206000209160030282015b828111156120b6578282600082018160000190805461206f9061341e565b61207a9291906120e5565b50600182018160010190805461208f9061341e565b61209a9291906120e5565b5060028201548160020155505091600301919060030190612051565b5b5090506120c49190612172565b5090565b5b808211156120e15760008160009055506001016120c9565b5090565b8280546120f19061341e565b90600052602060002090601f0160209004810192826121135760008555612161565b82601f106121245780548555612161565b8280016001018555821561216157600052602060002091601f016020900482015b82811115612160578254825591600101919060010190612145565b5b50905061216e91906120c8565b5090565b5b808211156121ad576000808201600061218c91906121b1565b60018201600061219c91906121b1565b600282016000905550600301612173565b5090565b5080546121bd9061341e565b6000825580601f106121cf57506121ee565b601f0160209004906000526020600020908101906121ed91906120c8565b5b50565b60006122046121ff846131c0565b61318f565b90508281526020810184848401111561221c57600080fd5b6122278482856133dc565b509392505050565b600061224261223d846131f0565b61318f565b90508281526020810184848401111561225a57600080fd5b6122658482856133dc565b509392505050565b60008135905061227c81613597565b92915050565b600081359050612291816135ae565b92915050565b6000813590506122a6816135c5565b92915050565b6000815190506122bb816135c5565b92915050565b600082601f8301126122d257600080fd5b81356122e28482602086016121f1565b91505092915050565b600082601f8301126122fc57600080fd5b813561230c84826020860161222f565b91505092915050565b600081359050612324816135dc565b92915050565b60006020828403121561233c57600080fd5b600061234a8482850161226d565b91505092915050565b6000806040838503121561236657600080fd5b60006123748582860161226d565b92505060206123858582860161226d565b9150509250929050565b6000806000606084860312156123a457600080fd5b60006123b28682870161226d565b93505060206123c38682870161226d565b92505060406123d486828701612315565b9150509250925092565b600080600080608085870312156123f457600080fd5b60006124028782880161226d565b94505060206124138782880161226d565b935050604061242487828801612315565b925050606085013567ffffffffffffffff81111561244157600080fd5b61244d878288016122c1565b91505092959194509250565b6000806040838503121561246c57600080fd5b600061247a8582860161226d565b925050602061248b85828601612282565b9150509250929050565b6000806000606084860312156124aa57600080fd5b60006124b88682870161226d565b935050602084013567ffffffffffffffff8111156124d557600080fd5b6124e1868287016122eb565b925050604084013567ffffffffffffffff8111156124fe57600080fd5b61250a868287016122eb565b9150509250925092565b6000806040838503121561252757600080fd5b60006125358582860161226d565b925050602061254685828601612315565b9150509250929050565b60006020828403121561256257600080fd5b600061257084828501612297565b91505092915050565b60006020828403121561258b57600080fd5b6000612599848285016122ac565b91505092915050565b6000602082840312156125b457600080fd5b60006125c284828501612315565b91505092915050565b60006125d78383612d7c565b905092915050565b6125e881613368565b82525050565b60006125f982613230565b612603818561325e565b93508360208202850161261585613220565b8060005b85811015612651578484038952815161263285826125cb565b945061263d83613251565b925060208a01995050600181019050612619565b50829750879550505050505092915050565b61266c8161337a565b82525050565b600061267d8261323b565b612687818561326f565b93506126978185602086016133eb565b6126a081613586565b840191505092915050565b60006126b682613246565b6126c08185613280565b93506126d08185602086016133eb565b6126d981613586565b840191505092915050565b60006126ef82613246565b6126f98185613291565b93506127098185602086016133eb565b61271281613586565b840191505092915050565b600061272882613246565b61273281856132a2565b93506127428185602086016133eb565b80840191505092915050565b600061275b602183613291565b91507f43657274696669636174652063616e6e6f74206265207472616e73666572726560008301527f64000000000000000000000000000000000000000000000000000000000000006020830152604082019050919050565b60006127c1603283613291565b91507f4552433732313a207472616e7366657220746f206e6f6e20455243373231526560008301527f63656976657220696d706c656d656e74657200000000000000000000000000006020830152604082019050919050565b6000612827601c83613291565b91507f4552433732313a20746f6b656e20616c7265616479206d696e746564000000006000830152602082019050919050565b6000612867602d83613291565b91507f4f6e6c79206973737565722063616e207669657720746865206973737565642060008301527f63657274696669636174657321000000000000000000000000000000000000006020830152604082019050919050565b60006128cd602483613291565b91507f4552433732313a207472616e7366657220746f20746865207a65726f2061646460008301527f72657373000000000000000000000000000000000000000000000000000000006020830152604082019050919050565b6000612933601983613291565b91507f4552433732313a20617070726f766520746f2063616c6c6572000000000000006000830152602082019050919050565b6000612973602c83613291565b91507f4552433732313a206f70657261746f7220717565727920666f72206e6f6e657860008301527f697374656e7420746f6b656e00000000000000000000000000000000000000006020830152604082019050919050565b60006129d9603883613291565b91507f4552433732313a20617070726f76652063616c6c6572206973206e6f74206f7760008301527f6e6572206e6f7220617070726f76656420666f7220616c6c00000000000000006020830152604082019050919050565b6000612a3f602a83613291565b91507f4552433732313a2062616c616e636520717565727920666f7220746865207a6560008301527f726f2061646472657373000000000000000000000000000000000000000000006020830152604082019050919050565b6000612aa5602983613291565b91507f4552433732313a206f776e657220717565727920666f72206e6f6e657869737460008301527f656e7420746f6b656e00000000000000000000000000000000000000000000006020830152604082019050919050565b6000612b0b602083613291565b91507f4552433732313a206d696e7420746f20746865207a65726f20616464726573736000830152602082019050919050565b6000612b4b602c83613291565b91507f4552433732313a20617070726f76656420717565727920666f72206e6f6e657860008301527f697374656e7420746f6b656e00000000000000000000000000000000000000006020830152604082019050919050565b6000612bb1602983613291565b91507f4552433732313a207472616e73666572206f6620746f6b656e2074686174206960008301527f73206e6f74206f776e00000000000000000000000000000000000000000000006020830152604082019050919050565b6000612c17602f83613291565b91507f4552433732314d657461646174613a2055524920717565727920666f72206e6f60008301527f6e6578697374656e7420746f6b656e00000000000000000000000000000000006020830152604082019050919050565b6000612c7d601583613291565b91507f4f6e6c79206973737565722063616e206d696e742100000000000000000000006000830152602082019050919050565b6000612cbd602183613291565b91507f4552433732313a20617070726f76616c20746f2063757272656e74206f776e6560008301527f72000000000000000000000000000000000000000000000000000000000000006020830152604082019050919050565b6000612d23603183613291565b91507f4552433732313a207472616e736665722063616c6c6572206973206e6f74206f60008301527f776e6572206e6f7220617070726f7665640000000000000000000000000000006020830152604082019050919050565b60006060830160008301518482036000860152612d9982826126ab565b91505060208301518482036020860152612db382826126ab565b9150506040830151612dc86040860182612e2a565b508091505092915050565b60006060830160008301518482036000860152612df082826126ab565b91505060208301518482036020860152612e0a82826126ab565b9150506040830151612e1f6040860182612e2a565b508091505092915050565b612e33816133d2565b82525050565b612e42816133d2565b82525050565b6000612e54828561271d565b9150612e60828461271d565b91508190509392505050565b6000602082019050612e8160008301846125df565b92915050565b6000608082019050612e9c60008301876125df565b612ea960208301866125df565b612eb66040830185612e39565b8181036060830152612ec88184612672565b905095945050505050565b60006020820190508181036000830152612eed81846125ee565b905092915050565b6000602082019050612f0a6000830184612663565b92915050565b60006020820190508181036000830152612f2a81846126e4565b905092915050565b60006020820190508181036000830152612f4b8161274e565b9050919050565b60006020820190508181036000830152612f6b816127b4565b9050919050565b60006020820190508181036000830152612f8b8161281a565b9050919050565b60006020820190508181036000830152612fab8161285a565b9050919050565b60006020820190508181036000830152612fcb816128c0565b9050919050565b60006020820190508181036000830152612feb81612926565b9050919050565b6000602082019050818103600083015261300b81612966565b9050919050565b6000602082019050818103600083015261302b816129cc565b9050919050565b6000602082019050818103600083015261304b81612a32565b9050919050565b6000602082019050818103600083015261306b81612a98565b9050919050565b6000602082019050818103600083015261308b81612afe565b9050919050565b600060208201905081810360008301526130ab81612b3e565b9050919050565b600060208201905081810360008301526130cb81612ba4565b9050919050565b600060208201905081810360008301526130eb81612c0a565b9050919050565b6000602082019050818103600083015261310b81612c70565b9050919050565b6000602082019050818103600083015261312b81612cb0565b9050919050565b6000602082019050818103600083015261314b81612d16565b9050919050565b6000602082019050818103600083015261316c8184612dd3565b905092915050565b60006020820190506131896000830184612e39565b92915050565b6000604051905081810181811067ffffffffffffffff821117156131b6576131b5613557565b5b8060405250919050565b600067ffffffffffffffff8211156131db576131da613557565b5b601f19601f8301169050602081019050919050565b600067ffffffffffffffff82111561320b5761320a613557565b5b601f19601f8301169050602081019050919050565b6000819050602082019050919050565b600081519050919050565b600081519050919050565b600081519050919050565b6000602082019050919050565b600082825260208201905092915050565b600082825260208201905092915050565b600082825260208201905092915050565b600082825260208201905092915050565b600081905092915050565b60006132b8826133d2565b91506132c3836133d2565b9250827fffffffffffffffffffffffffffffffffffffffffffffffffffffffffffffffff038211156132f8576132f76134ca565b5b828201905092915050565b600061330e826133d2565b9150613319836133d2565b925082613329576133286134f9565b5b828204905092915050565b600061333f826133d2565b915061334a836133d2565b92508282101561335d5761335c6134ca565b5b828203905092915050565b6000613373826133b2565b9050919050565b60008115159050919050565b60007fffffffff0000000000000000000000000000000000000000000000000000000082169050919050565b600073ffffffffffffffffffffffffffffffffffffffff82169050919050565b6000819050919050565b82818337600083830152505050565b60005b838110156134095780820151818401526020810190506133ee565b83811115613418576000848401525b50505050565b6000600282049050600182168061343657607f821691505b6020821081141561344a57613449613528565b5b50919050565b600061345b826133d2565b91507fffffffffffffffffffffffffffffffffffffffffffffffffffffffffffffffff82141561348e5761348d6134ca565b5b600182019050919050565b60006134a4826133d2565b91506134af836133d2565b9250826134bf576134be6134f9565b5b828206905092915050565b7f4e487b7100000000000000000000000000000000000000000000000000000000600052601160045260246000fd5b7f4e487b7100000000000000000000000000000000000000000000000000000000600052601260045260246000fd5b7f4e487b7100000000000000000000000000000000000000000000000000000000600052602260045260246000fd5b7f4e487b7100000000000000000000000000000000000000000000000000000000600052604160045260246000fd5b6000601f19601f8301169050919050565b6135a081613368565b81146135ab57600080fd5b50565b6135b78161337a565b81146135c257600080fd5b50565b6135ce81613386565b81146135d957600080fd5b50565b6135e5816133d2565b81146135f057600080fd5b5056fea264697066735822122090c9a5a3e7da0cb47f8b973752e5bc9d9659567dc587f51e18882e457648e7f864736f6c63430008000033",
  "linkReferences": {},
  "deployedLinkReferences": {}
}